{
  "contractName": "Authentication",
  "abi": [
    {
      "constant": true,
      "inputs": [
        {
          "name": "",
          "type": "uint256"
        }
      ],
      "name": "allUsers",
      "outputs": [
        {
          "name": "",
          "type": "address"
        }
      ],
      "payable": false,
      "stateMutability": "view",
      "type": "function"
    },
    {
      "anonymous": false,
      "inputs": [
        {
          "indexed": true,
          "name": "_address",
          "type": "address"
        },
        {
          "indexed": false,
          "name": "_name",
          "type": "bytes32"
        },
        {
          "indexed": false,
          "name": "_created_at",
          "type": "uint256"
        }
      ],
      "name": "UserCreated",
      "type": "event"
    },
    {
      "anonymous": false,
      "inputs": [
        {
          "indexed": true,
          "name": "_address",
          "type": "address"
        },
        {
          "indexed": false,
          "name": "_name",
          "type": "bytes32"
        }
      ],
      "name": "UserUpdated",
      "type": "event"
    },
    {
      "anonymous": false,
      "inputs": [
        {
          "indexed": true,
          "name": "_address",
          "type": "address"
        }
      ],
      "name": "UserDeleted",
      "type": "event"
    },
    {
      "constant": true,
      "inputs": [],
      "name": "login",
      "outputs": [
        {
          "name": "",
          "type": "bytes32"
        }
      ],
      "payable": false,
      "stateMutability": "view",
      "type": "function"
    },
    {
      "constant": false,
      "inputs": [
        {
          "name": "name",
          "type": "bytes32"
        }
      ],
      "name": "signup",
      "outputs": [
        {
          "name": "",
          "type": "bytes32"
        }
      ],
      "payable": true,
      "stateMutability": "payable",
      "type": "function"
    },
    {
      "constant": false,
      "inputs": [
        {
          "name": "name",
          "type": "bytes32"
        }
      ],
      "name": "update",
      "outputs": [
        {
          "name": "",
          "type": "bytes32"
        }
      ],
      "payable": true,
      "stateMutability": "payable",
      "type": "function"
    },
    {
      "constant": false,
      "inputs": [],
      "name": "destroy",
      "outputs": [],
      "payable": false,
      "stateMutability": "nonpayable",
      "type": "function"
    }
  ],
  "bytecode": "0x608060405234801561001057600080fd5b50610380806100206000396000f30060806040526004361061006c5763ffffffff7c01000000000000000000000000000000000000000000000000000000006000350416635c1397de811461007157806383197ef01461008e5780638b147245146100a5578063a2bdedf4146100b0578063b34e97e8146100f1575b600080fd5b61007c600435610106565b60408051918252519081900360200190f35b34801561009a57600080fd5b506100a36101fa565b005b61007c600435610255565b3480156100bc57600080fd5b506100c86004356102f0565b6040805173ffffffffffffffffffffffffffffffffffffffff9092168252519081900360200190f35b3480156100fd57600080fd5b5061007c610325565b60008180151561011557600080fd5b3360009081526020819052604090205415156101e1573360008181526020818152604080832087815542600191820181905581548083018355919094527fb10e2d527612073b26eecdfd717e6a320cf44b4afac2b0732d9fcbe2b7fa0cf601805473ffffffffffffffffffffffffffffffffffffffff19168517905580518781529182019290925281517f75a78c3506795933e208740942b53541acf3eb85d5ca731a904e358b120d6116929181900390910190a23360009081526020819052604090205491506101f4565b3360009081526020819052604090205491505b50919050565b33600090815260208190526040902054151561021557600080fd5b33600081815260208190526040808220828155600101829055517f4bc56f1321288dfb5b416cb3a7fd188723979f9e866c91d88eccf7fca039d0399190a2565b60008180151561026457600080fd5b33600090815260208190526040902054151561027f57600080fd5b33600090815260208190526040902054156101f4573360008181526020818152604091829020869055815186815291517f6c46eb453c5219d7665e4dda98f6200b9c6978d989806dfc2d2b17dc03609c539281900390910190a23360009081526020819052604090205491506101f4565b60018054829081106102fe57fe5b60009182526020909120015473ffffffffffffffffffffffffffffffffffffffff16905081565b33600090815260208190526040812054151561034057600080fd5b5033600090815260208190526040902054905600a165627a7a7230582086006b3036451281561f1ec9b13051f01b247cf0a85429446146cbfc1270ba7c0029",
  "source": "pragma solidity ^0.4.24;\r\n\r\n/// @author David Li <davidli012345@gmail.com>\r\n/// @dev basic authentication contract\r\n/// @notice tracks list of all users\r\ncontract Authentication {\r\n  struct User {\r\n    bytes32 name;\r\n    uint256 created_at;\r\n  }\r\n  \r\n  event UserCreated(address indexed _address, bytes32 _name, uint256 _created_at);\r\n  event UserUpdated(address indexed _address, bytes32 _name);\r\n  event UserDeleted(address indexed _address);\r\n  \r\n  // make info public???\r\n  mapping (address => User) private users;\r\n  \r\n  // public array that contains list of all users that have registered \r\n  address[] public allUsers;\r\n  modifier onlyExistingUser {\r\n    // Check if user exists or terminate\r\n\r\n    require(!(users[msg.sender].name == 0x0));\r\n    _;\r\n  }\r\n\r\n  modifier onlyValidName(bytes32 name) {\r\n    // Only valid names allowed\r\n\r\n    require(!(name == 0x0));\r\n    _;\r\n  }\r\n  \r\n  /// @return username\r\n  function login() \r\n  public\r\n  view \r\n  onlyExistingUser\r\n  returns (bytes32) {\r\n    return (users[msg.sender].name);\r\n  }\r\n  \r\n  /// @param name the username to be created. \r\n  /// @dev checks if user exists\r\n  /// If yes return user name \r\n  /// If no, check if name was sent \r\n  /// If yes, create and return user \r\n  /// @return username of created user\r\n  function signup(bytes32 name)\r\n  public\r\n  payable\r\n  onlyValidName(name)\r\n  returns (bytes32) {\r\n\r\n    if (users[msg.sender].name == 0x0)\r\n    {\r\n        users[msg.sender].name = name;\r\n\t    users[msg.sender].created_at = now;\r\n        \r\n        allUsers.push(msg.sender);\r\n        emit UserCreated(msg.sender,name,now);\r\n        return (users[msg.sender].name);\r\n    }\r\n\r\n    return (users[msg.sender].name);\r\n  }\r\n  \r\n  /// @param name updating username\r\n  /// @dev updating user name \r\n  /// @return updated username \r\n  function update(bytes32 name)\r\n  public\r\n  payable\r\n  onlyValidName(name)\r\n  onlyExistingUser\r\n  returns (bytes32) {\r\n    // Update user name.\r\n\r\n    if (users[msg.sender].name != 0x0)\r\n    {\r\n        users[msg.sender].name = name;\r\n        \r\n        emit UserUpdated(msg.sender,name);\r\n \r\n        return (users[msg.sender].name);\r\n    }\r\n  }\r\n  \r\n  /// @dev destroy existing username \r\n  function destroy () \r\n  public \r\n  onlyExistingUser {\r\n    delete users[msg.sender];\r\n    emit UserDeleted(msg.sender);\r\n  }\r\n}",
  "sourcePath": "C:\\Users\\wu\\Downloads\\Active Projects\\Bchain\\IPFS-Dapp\\contracts\\Authentication.sol",
  "compiler": {
    "name": "solc",
    "version": "0.4.24+commit.e67f0147.Emscripten.clang"
  },
  "schemaVersion": "2.0.1",
  "updatedAt": "2018-10-27T05:13:47.202Z"
}