{
  "contractName": "Authentication",
  "abi": [
    {
      "anonymous": false,
      "inputs": [
        {
          "indexed": true,
          "name": "_address",
          "type": "address"
        },
        {
          "indexed": false,
          "name": "_name",
          "type": "bytes32"
        },
        {
          "indexed": false,
          "name": "_created_at",
          "type": "uint256"
        }
      ],
      "name": "UserCreated",
      "type": "event"
    },
    {
      "anonymous": false,
      "inputs": [
        {
          "indexed": true,
          "name": "_address",
          "type": "address"
        },
        {
          "indexed": false,
          "name": "_name",
          "type": "bytes32"
        }
      ],
      "name": "UserUpdated",
      "type": "event"
    },
    {
      "anonymous": false,
      "inputs": [
        {
          "indexed": true,
          "name": "_address",
          "type": "address"
        }
      ],
      "name": "UserDeleted",
      "type": "event"
    },
    {
      "constant": true,
      "inputs": [],
      "name": "login",
      "outputs": [
        {
          "name": "",
          "type": "bytes32"
        }
      ],
      "payable": false,
      "stateMutability": "view",
      "type": "function"
    },
    {
      "constant": false,
      "inputs": [
        {
          "name": "name",
          "type": "bytes32"
        }
      ],
      "name": "signup",
      "outputs": [
        {
          "name": "",
          "type": "bytes32"
        }
      ],
      "payable": true,
      "stateMutability": "payable",
      "type": "function"
    },
    {
      "constant": false,
      "inputs": [
        {
          "name": "name",
          "type": "bytes32"
        }
      ],
      "name": "update",
      "outputs": [
        {
          "name": "",
          "type": "bytes32"
        }
      ],
      "payable": true,
      "stateMutability": "payable",
      "type": "function"
    },
    {
      "constant": false,
      "inputs": [],
      "name": "destroy",
      "outputs": [],
      "payable": false,
      "stateMutability": "nonpayable",
      "type": "function"
    }
  ],
  "bytecode": "0x608060405234801561001057600080fd5b506102b3806100206000396000f3006080604052600436106100615763ffffffff7c01000000000000000000000000000000000000000000000000000000006000350416635c1397de811461006657806383197ef0146100835780638b1472451461009a578063b34e97e8146100a5575b600080fd5b6100716004356100ba565b60408051918252519081900360200190f35b34801561008f57600080fd5b50610098610162565b005b6100716004356101bd565b3480156100b157600080fd5b50610071610258565b6000818015156100c957600080fd5b33600090815260208190526040902054151561014957336000818152602081815260409182902086815542600190910181905582518781529182015281517f75a78c3506795933e208740942b53541acf3eb85d5ca731a904e358b120d6116929181900390910190a233600090815260208190526040902054915061015c565b3360009081526020819052604090205491505b50919050565b33600090815260208190526040902054151561017d57600080fd5b33600081815260208190526040808220828155600101829055517f4bc56f1321288dfb5b416cb3a7fd188723979f9e866c91d88eccf7fca039d0399190a2565b6000818015156101cc57600080fd5b3360009081526020819052604090205415156101e757600080fd5b336000908152602081905260409020541561015c573360008181526020818152604091829020869055815186815291517f6c46eb453c5219d7665e4dda98f6200b9c6978d989806dfc2d2b17dc03609c539281900390910190a233600090815260208190526040902054915061015c565b33600090815260208190526040812054151561027357600080fd5b5033600090815260208190526040902054905600a165627a7a72305820f068928dde224bfca84a6a30f67ae63630d0b386a7979b7ac3298ddeab5be6f40029",
  "source": "pragma solidity ^0.4.24;\r\n\r\n/// @author David Li <davidli012345@gmail.com>\r\n/// @dev basic authentication contract\r\n/// @notice tracks list of all users\r\ncontract Authentication {\r\n  struct User {\r\n    bytes32 name;\r\n    uint256 created_at;\r\n  }\r\n  \r\n  event UserCreated(address indexed _address, bytes32 _name, uint256 _created_at);\r\n  event UserUpdated(address indexed _address, bytes32 _name);\r\n  event UserDeleted(address indexed _address);\r\n\r\n  mapping (address => User) private users;\r\n\r\n  modifier onlyExistingUser {\r\n    // Check if user exists or terminate\r\n\r\n    require(!(users[msg.sender].name == 0x0));\r\n    _;\r\n  }\r\n\r\n  modifier onlyValidName(bytes32 name) {\r\n    // Only valid names allowed\r\n\r\n    require(!(name == 0x0));\r\n    _;\r\n  }\r\n  \r\n  /// @return username\r\n  function login() \r\n  public\r\n  view \r\n  onlyExistingUser\r\n  returns (bytes32) {\r\n    return (users[msg.sender].name);\r\n  }\r\n  \r\n  /// @param name the username to be created. \r\n  /// @dev checks if user exists\r\n  /// If yes return user name \r\n  /// If no, check if name was sent \r\n  /// If yes, create and return user \r\n  /// @return username of created user\r\n  function signup(bytes32 name)\r\n  public\r\n  payable\r\n  onlyValidName(name)\r\n  returns (bytes32) {\r\n\r\n    if (users[msg.sender].name == 0x0)\r\n    {\r\n        users[msg.sender].name = name;\r\n\t    users[msg.sender].created_at = now;\r\n\r\n        emit UserCreated(msg.sender,name,now);\r\n        return (users[msg.sender].name);\r\n    }\r\n\r\n    return (users[msg.sender].name);\r\n  }\r\n  \r\n  /// @param name updating username\r\n  /// @dev updating user name \r\n  /// @return updated username \r\n  function update(bytes32 name)\r\n  public\r\n  payable\r\n  onlyValidName(name)\r\n  onlyExistingUser\r\n  returns (bytes32) {\r\n    // Update user name.\r\n\r\n    if (users[msg.sender].name != 0x0)\r\n    {\r\n        users[msg.sender].name = name;\r\n        \r\n        emit UserUpdated(msg.sender,name);\r\n \r\n        return (users[msg.sender].name);\r\n    }\r\n  }\r\n  \r\n  /// @dev destroy existing username \r\n  function destroy () \r\n  public \r\n  onlyExistingUser {\r\n    delete users[msg.sender];\r\n    emit UserDeleted(msg.sender);\r\n  }\r\n}",
  "sourcePath": "C:\\Users\\wu\\Downloads\\Active Projects\\Bchain\\IPFS-Dapp\\contracts\\Authentication.sol",
  "compiler": {
    "name": "solc",
    "version": "0.4.24+commit.e67f0147.Emscripten.clang"
  },
  "schemaVersion": "2.0.0",
  "updatedAt": "2018-10-07T18:04:18.096Z"
}