{
  "contractName": "FileList",
  "abi": [
    {
      "constant": true,
      "inputs": [
        {
          "name": "",
          "type": "address"
        },
        {
          "name": "",
          "type": "uint256"
        }
      ],
      "name": "files",
      "outputs": [
        {
          "name": "id",
          "type": "uint256"
        },
        {
          "name": "ipfshash",
          "type": "string"
        },
        {
          "name": "filename",
          "type": "bytes32"
        },
        {
          "name": "owner",
          "type": "address"
        },
        {
          "name": "timestamp",
          "type": "uint256"
        }
      ],
      "payable": false,
      "stateMutability": "view",
      "type": "function"
    },
    {
      "constant": true,
      "inputs": [
        {
          "name": "",
          "type": "address"
        }
      ],
      "name": "lastIds",
      "outputs": [
        {
          "name": "",
          "type": "uint256"
        }
      ],
      "payable": false,
      "stateMutability": "view",
      "type": "function"
    },
    {
      "constant": true,
      "inputs": [],
      "name": "maxAmountOfFiles",
      "outputs": [
        {
          "name": "",
          "type": "uint256"
        }
      ],
      "payable": false,
      "stateMutability": "view",
      "type": "function"
    },
    {
      "anonymous": false,
      "inputs": [
        {
          "indexed": false,
          "name": "fileid",
          "type": "uint256"
        },
        {
          "indexed": false,
          "name": "ipfshash",
          "type": "string"
        },
        {
          "indexed": false,
          "name": "_filename",
          "type": "bytes32"
        }
      ],
      "name": "fileAdded",
      "type": "event"
    },
    {
      "anonymous": false,
      "inputs": [
        {
          "indexed": false,
          "name": "tags",
          "type": "bytes32[5]"
        }
      ],
      "name": "tagsAdded",
      "type": "event"
    },
    {
      "constant": false,
      "inputs": [
        {
          "name": "ipfshash",
          "type": "string"
        },
        {
          "name": "_filename",
          "type": "bytes32"
        },
        {
          "name": "tags",
          "type": "bytes32[5]"
        }
      ],
      "name": "addFile",
      "outputs": [],
      "payable": false,
      "stateMutability": "nonpayable",
      "type": "function"
    },
    {
      "constant": true,
      "inputs": [
        {
          "name": "owner",
          "type": "address"
        },
        {
          "name": "_index",
          "type": "uint256"
        }
      ],
      "name": "getFileTags",
      "outputs": [
        {
          "name": "",
          "type": "bytes32[5]"
        }
      ],
      "payable": false,
      "stateMutability": "view",
      "type": "function"
    }
  ],
  "bytecode": "0x608060405234801561001057600080fd5b506107d2806100206000396000f30060806040526004361061006c5763ffffffff7c010000000000000000000000000000000000000000000000000000000060003504166328841d8e81146100715780632ba6978e146100da578063a7474918146101b5578063bfa93325146101f5578063fd6b6a0f1461027f575b600080fd5b34801561007d57600080fd5b506100a273ffffffffffffffffffffffffffffffffffffffff60043516602435610294565b604051808260a080838360005b838110156100c75781810151838201526020016100af565b5050505090500191505060405180910390f35b3480156100e657600080fd5b5061010b73ffffffffffffffffffffffffffffffffffffffff6004351660243561030e565b6040805186815290810184905273ffffffffffffffffffffffffffffffffffffffff831660608201526080810182905260a06020808301828152875192840192909252865160c084019188019080838360005b8381101561017657818101518382015260200161015e565b50505050905090810190601f1680156101a35780820380516001836020036101000a031916815260200191505b50965050505050505060405180910390f35b3480156101c157600080fd5b506101e373ffffffffffffffffffffffffffffffffffffffff600435166103f6565b60408051918252519081900360200190f35b34801561020157600080fd5b506040805160206004803580820135601f810184900484028501840190955284845261027d943694929360249392840191908190840183828082843750506040805160a081810190925295988735989097909660c082019650945060200192506005915083908390808284375093965061040895505050505050565b005b34801561028b57600080fd5b506101e361067a565b61029c610680565b73ffffffffffffffffffffffffffffffffffffffff83166000908152602081905260409020826103e881106102cd57fe5b6040805160a081019182905292600a929092029091016003019060059082845b815481526001909101906020018083116102ed575050505050905092915050565b6000602052816000526040600020816103e88110151561032a57fe5b600a0201805460018083018054604080516020600295841615610100026000190190931694909404601f810183900483028501830190915280845293965093945090929091908301828280156103c15780601f10610396576101008083540402835291602001916103c1565b820191906000526020600020905b8154815290600101906020018083116103a457829003601f168201915b50505050600283015460088401546009909401549293909273ffffffffffffffffffffffffffffffffffffffff909116915085565b60016020526000908152604090205481565b61041061069f565b506040805160c0810182523360008181526001602090815284822054845283018790528284018690526060830185905260808301919091524260a080840191909152925191927f1fd2e0dedaaab32630bbbabbc6b14ce44421f30a6b4a7af9e5010f1463e4d6e7928592909182918491908190849084905b838110156104a0578181015183820152602001610488565b5050505090500191505060405180910390a1336000908152602081815260408083206001909252909120548291906103e881106104d957fe5b600a02016000820151816000015560208201518160010190805190602001906105039291906106db565b506040820151600282015560608201516105239060038301906005610759565b5060808281015160088301805473ffffffffffffffffffffffffffffffffffffffff191673ffffffffffffffffffffffffffffffffffffffff90921691909117905560a09092015160099091015533600090815260016020908152604080832054815181815291820188905260608284018181528a519184019190915289517f8e74f36ceb7ee94ec98ad9f445180c7c6c584a8ca9c1170e94461e6f7e6c6c269692958b958b9594850192908701918190849084905b838110156105f15781810151838201526020016105d9565b50505050905090810190601f16801561061e5780820380516001836020036101000a031916815260200191505b5094505050505060405180910390a1336000908152600160205260409020546103e81161065a5733600090815260016020526040812055610674565b336000908152600160208190526040909120805490910190555b50505050565b6103e881565b60a0604051908101604052806005906020820280388339509192915050565b60408051610140810182526000808252606060208301819052928201529081016106c7610680565b815260006020820181905260409091015290565b828054600181600116156101000203166002900490600052602060002090601f016020900481019282601f1061071c57805160ff1916838001178555610749565b82800160010185558215610749579182015b8281111561074957825182559160200191906001019061072e565b50610755929150610789565b5090565b8260058101928215610749579160200282015b82811115610749578251825560209092019160019091019061076c565b6107a391905b80821115610755576000815560010161078f565b905600a165627a7a7230582092d97d56db3a7c2cbec268d4e500a8a2a2cbc7fc74a0bf13cf82bf957d93053a0029",
  "source": "pragma solidity ^0.4.24;\r\n/// @author David Li\r\n/// @notice Stores a filelist on solidity, since an array of structs cannot easily be returned\r\n/// the structs must be decomposed on the front-end\r\n/// @dev simple filelist contains ipfshash, filename, owner, tags and unix timestamp\r\n/// @dev one way to create a \"trello\" like application would require creating more modifiers and perhaps\r\n/// role based access control.\r\n/// @dev since I can't use an bytes32 array in solidity, I decided to have tag numbers\r\n/// corresponding to string names, almost like a dictionary look up.\r\ncontract FileList {\r\n\r\n   /// @dev struct that contains unique link to image (via IPFS), serial Id, and timestamp\r\n   struct File {\r\n      uint256 id;\r\n      string ipfshash;\r\n      bytes32 filename;\r\n      bytes32[5] tags;\r\n      address owner;\r\n      uint256 timestamp;\r\n   }\r\n   uint256 public constant maxAmountOfFiles = 1000;\r\n   // Owner => files\r\n   mapping(address => File[maxAmountOfFiles]) public files;\r\n   // Owner => last files id\r\n   mapping(address => uint256) public lastIds;\r\n   // consider mapping hash to set of tags\r\n   \r\n   /// @dev main event for smart contract, needed for drizzle to update list of files\r\n   event fileAdded (uint256 fileid, string ipfshash, bytes32 _filename);\r\n   event tagsAdded (bytes32[5] tags);\r\n\r\n   /// @dev Add a file to the list\r\n   /// @param ipfshash an ipfshash returned after an image is finished uploaded\r\n   /// @param _filename name of file as a bytes32 as filenames should be short\r\n   /// @param tags array of bytes32 used for sorting/searching files (e,g. blockchain, school, textbook)\r\n   /// @notice updates mappings todos and lastIds\r\n   function addFile(string ipfshash, bytes32 _filename, bytes32[5] tags) public {\r\n \r\n      File memory myFile = File(lastIds[msg.sender], ipfshash, _filename, tags,  msg.sender, now);\r\n      // explicitly store tags\r\n      \r\n      myFile.tags = tags;\r\n      // baka\r\n      emit tagsAdded (myFile.tags);\r\n      // store new file in mapping\r\n\r\n      files[msg.sender][lastIds[msg.sender]] = myFile;\r\n      // emit event, also need for drizzle\r\n      emit fileAdded(lastIds[msg.sender],ipfshash,_filename);\r\n      if(lastIds[msg.sender] >= maxAmountOfFiles) lastIds[msg.sender] = 0;\r\n      else lastIds[msg.sender]++;\r\n   }\r\n   \r\n   /// @dev return the tags for a specific file \r\n   /// @param owner --- address of person who uploaded the file \r\n   /// @param _index --- the file desired, (first file uploaded, second , etc ...)\r\n   function getFileTags(address owner, uint256 _index) external view returns (bytes32[5]) {\r\n       return files[owner][_index].tags;\r\n  }\r\n}",
  "sourcePath": "C:\\Users\\wu\\Downloads\\Active Projects\\Bchain\\IPFS-Dapp\\contracts\\FileList.sol",
  "compiler": {
    "name": "solc",
    "version": "0.4.24+commit.e67f0147.Emscripten.clang"
  },
  "schemaVersion": "2.0.0",
  "updatedAt": "2018-10-21T17:33:15.553Z"
}