{
  "contractName": "SimpleStorage",
  "abi": [
    {
      "constant": true,
      "inputs": [],
      "name": "storedData",
      "outputs": [
        {
          "name": "",
          "type": "uint256"
        }
      ],
      "payable": false,
      "stateMutability": "view",
      "type": "function"
    },
    {
      "anonymous": false,
      "inputs": [
        {
          "indexed": false,
          "name": "_message",
          "type": "string"
        }
      ],
      "name": "StorageSet",
      "type": "event"
    },
    {
      "constant": false,
      "inputs": [
        {
          "name": "x",
          "type": "uint256"
        }
      ],
      "name": "set",
      "outputs": [],
      "payable": false,
      "stateMutability": "nonpayable",
      "type": "function"
    }
  ],
  "bytecode": "0x608060405234801561001057600080fd5b50610122806100206000396000f30060806040526004361060485763ffffffff7c01000000000000000000000000000000000000000000000000000000006000350416632a1afcd98114604d57806360fe47b1146071575b600080fd5b348015605857600080fd5b50605f6088565b60408051918252519081900360200190f35b348015607c57600080fd5b506086600435608e565b005b60005481565b60008190556040805160208082526019908201527f446174612073746f726564207375636365737366756c6c7921000000000000008183015290517f60cdc157ca4737a5d39a0e107532616e7bf6946e615228812c7f9bc9f81797a69181900360600190a1505600a165627a7a72305820dac6af3c45c6bda08f5f1e3e729d1ce1a2eb4d3b62609d415cdc675a62b7d5f20029",
  "source": "pragma solidity ^0.4.23;\r\n\r\n/// @dev simpleStorage\r\ncontract SimpleStorage {\r\n  event StorageSet(\r\n    string _message\r\n  );\r\n\r\n  uint public storedData;\r\n  \r\n  /// @param x an variable\r\n  function set(uint x) public {\r\n    storedData = x;\r\n\r\n    emit StorageSet(\"Data stored successfully!\");\r\n  }\r\n}\r\n",
  "sourcePath": "C:\\Users\\wu\\Downloads\\Active Projects\\Bchain\\IPFS-Dapp\\contracts\\SimpleStorage.sol",
  "compiler": {
    "name": "solc",
    "version": "0.4.24+commit.e67f0147.Emscripten.clang"
  },
  "schemaVersion": "2.0.0",
  "updatedAt": "2018-10-08T19:50:58.195Z"
}