{
  "contractName": "TutorialToken",
  "abi": [
    {
      "constant": true,
      "inputs": [],
      "name": "name",
      "outputs": [
        {
          "name": "",
          "type": "string"
        }
      ],
      "payable": false,
      "stateMutability": "view",
      "type": "function"
    },
    {
      "constant": true,
      "inputs": [],
      "name": "INITIAL_SUPPLY",
      "outputs": [
        {
          "name": "",
          "type": "uint256"
        }
      ],
      "payable": false,
      "stateMutability": "view",
      "type": "function"
    },
    {
      "constant": true,
      "inputs": [],
      "name": "decimals",
      "outputs": [
        {
          "name": "",
          "type": "uint256"
        }
      ],
      "payable": false,
      "stateMutability": "view",
      "type": "function"
    },
    {
      "constant": true,
      "inputs": [],
      "name": "symbol",
      "outputs": [
        {
          "name": "",
          "type": "string"
        }
      ],
      "payable": false,
      "stateMutability": "view",
      "type": "function"
    },
    {
      "inputs": [],
      "payable": false,
      "stateMutability": "nonpayable",
      "type": "constructor"
    }
  ],
  "bytecode": "0x60c0604052600d60808190527f5475746f7269616c546f6b656e0000000000000000000000000000000000000060a090815261003e91600091906100a0565b506040805180820190915260028082527f54540000000000000000000000000000000000000000000000000000000000006020909201918252610083916001916100a0565b5060028055612ee060035534801561009a57600080fd5b5061013b565b828054600181600116156101000203166002900490600052602060002090601f016020900481019282601f106100e157805160ff191683800117855561010e565b8280016001018555821561010e579182015b8281111561010e5782518255916020019190600101906100f3565b5061011a92915061011e565b5090565b61013891905b8082111561011a5760008155600101610124565b90565b6102618061014a6000396000f3006080604052600436106100615763ffffffff7c010000000000000000000000000000000000000000000000000000000060003504166306fdde0381146100665780632ff2e9dc146100f0578063313ce5671461011757806395d89b411461012c575b600080fd5b34801561007257600080fd5b5061007b610141565b6040805160208082528351818301528351919283929083019185019080838360005b838110156100b557818101518382015260200161009d565b50505050905090810190601f1680156100e25780820380516001836020036101000a031916815260200191505b509250505060405180910390f35b3480156100fc57600080fd5b506101056101cf565b60408051918252519081900360200190f35b34801561012357600080fd5b506101056101d5565b34801561013857600080fd5b5061007b6101db565b6000805460408051602060026001851615610100026000190190941693909304601f810184900484028201840190925281815292918301828280156101c75780601f1061019c576101008083540402835291602001916101c7565b820191906000526020600020905b8154815290600101906020018083116101aa57829003601f168201915b505050505081565b60035481565b60025481565b60018054604080516020600284861615610100026000190190941693909304601f810184900484028201840190925281815292918301828280156101c75780601f1061019c576101008083540402835291602001916101c75600a165627a7a7230582054ddca9163c46b9e2186bed31143d59f57e6cc26fcb86862a7e50ff249672d9a0029",
  "source": "pragma solidity ^0.4.23;\r\n\r\n// import \"openzeppelin-solidity/contracts/token/ERC20/StandardToken.sol\";\r\n\r\n/// @author TutorialToken \r\ncontract TutorialToken {\r\n  string public name = \"TutorialToken\";\r\n  string public symbol = \"TT\";\r\n  uint public decimals = 2;\r\n  uint public INITIAL_SUPPLY = 12000;\r\n  \r\n  /// @dev cool stuff\r\n  constructor() public {\r\n    // totalSupply_ = INITIAL_SUPPLY;\r\n    // balances[msg.sender] = INITIAL_SUPPLY;\r\n  }\r\n}\r\n",
  "sourcePath": "C:\\Users\\wu\\Downloads\\Active Projects\\Bchain\\IPFS-Dapp\\contracts\\TutorialToken.sol",
  "compiler": {
    "name": "solc",
    "version": "0.4.24+commit.e67f0147.Emscripten.clang"
  },
  "schemaVersion": "2.0.0",
  "updatedAt": "2018-10-21T17:33:15.524Z"
}